{
  "contractName": "NFTContract",
  "abi": [
    {
      "inputs": [
        {
          "internalType": "string",
          "name": "_name",
          "type": "string"
        },
        {
          "internalType": "string",
          "name": "_symbol",
          "type": "string"
        },
        {
          "internalType": "uint256",
          "name": "_royaltyFee",
          "type": "uint256"
        },
        {
          "internalType": "address",
          "name": "_artist",
          "type": "address"
        }
      ],
      "stateMutability": "nonpayable",
      "type": "constructor"
    },
    {
      "anonymous": false,
      "inputs": [
        {
          "indexed": true,
          "internalType": "address",
          "name": "owner",
          "type": "address"
        },
        {
          "indexed": true,
          "internalType": "address",
          "name": "approved",
          "type": "address"
        },
        {
          "indexed": true,
          "internalType": "uint256",
          "name": "tokenId",
          "type": "uint256"
        }
      ],
      "name": "Approval",
      "type": "event"
    },
    {
      "anonymous": false,
      "inputs": [
        {
          "indexed": true,
          "internalType": "address",
          "name": "owner",
          "type": "address"
        },
        {
          "indexed": true,
          "internalType": "address",
          "name": "operator",
          "type": "address"
        },
        {
          "indexed": false,
          "internalType": "bool",
          "name": "approved",
          "type": "bool"
        }
      ],
      "name": "ApprovalForAll",
      "type": "event"
    },
    {
      "anonymous": false,
      "inputs": [
        {
          "indexed": true,
          "internalType": "address",
          "name": "previousOwner",
          "type": "address"
        },
        {
          "indexed": true,
          "internalType": "address",
          "name": "newOwner",
          "type": "address"
        }
      ],
      "name": "OwnershipTransferred",
      "type": "event"
    },
    {
      "anonymous": false,
      "inputs": [
        {
          "indexed": false,
          "internalType": "uint256",
          "name": "id",
          "type": "uint256"
        },
        {
          "indexed": true,
          "internalType": "address",
          "name": "owner",
          "type": "address"
        },
        {
          "indexed": false,
          "internalType": "uint256",
          "name": "cost",
          "type": "uint256"
        },
        {
          "indexed": false,
          "internalType": "string",
          "name": "metadataURI",
          "type": "string"
        },
        {
          "indexed": false,
          "internalType": "uint256",
          "name": "timestamp",
          "type": "uint256"
        }
      ],
      "name": "Sale",
      "type": "event"
    },
    {
      "anonymous": false,
      "inputs": [
        {
          "indexed": true,
          "internalType": "address",
          "name": "from",
          "type": "address"
        },
        {
          "indexed": true,
          "internalType": "address",
          "name": "to",
          "type": "address"
        },
        {
          "indexed": true,
          "internalType": "uint256",
          "name": "tokenId",
          "type": "uint256"
        }
      ],
      "name": "Transfer",
      "type": "event"
    },
    {
      "inputs": [
        {
          "internalType": "address",
          "name": "to",
          "type": "address"
        },
        {
          "internalType": "uint256",
          "name": "tokenId",
          "type": "uint256"
        }
      ],
      "name": "approve",
      "outputs": [],
      "stateMutability": "nonpayable",
      "type": "function"
    },
    {
      "inputs": [],
      "name": "artist",
      "outputs": [
        {
          "internalType": "address",
          "name": "",
          "type": "address"
        }
      ],
      "stateMutability": "view",
      "type": "function",
      "constant": true
    },
    {
      "inputs": [
        {
          "internalType": "address",
          "name": "owner",
          "type": "address"
        }
      ],
      "name": "balanceOf",
      "outputs": [
        {
          "internalType": "uint256",
          "name": "",
          "type": "uint256"
        }
      ],
      "stateMutability": "view",
      "type": "function",
      "constant": true
    },
    {
      "inputs": [],
      "name": "cost",
      "outputs": [
        {
          "internalType": "uint256",
          "name": "",
          "type": "uint256"
        }
      ],
      "stateMutability": "view",
      "type": "function",
      "constant": true
    },
    {
      "inputs": [
        {
          "internalType": "uint256",
          "name": "tokenId",
          "type": "uint256"
        }
      ],
      "name": "getApproved",
      "outputs": [
        {
          "internalType": "address",
          "name": "",
          "type": "address"
        }
      ],
      "stateMutability": "view",
      "type": "function",
      "constant": true
    },
    {
      "inputs": [
        {
          "internalType": "uint256",
          "name": "",
          "type": "uint256"
        }
      ],
      "name": "holderOf",
      "outputs": [
        {
          "internalType": "address",
          "name": "",
          "type": "address"
        }
      ],
      "stateMutability": "view",
      "type": "function",
      "constant": true
    },
    {
      "inputs": [
        {
          "internalType": "address",
          "name": "owner",
          "type": "address"
        },
        {
          "internalType": "address",
          "name": "operator",
          "type": "address"
        }
      ],
      "name": "isApprovedForAll",
      "outputs": [
        {
          "internalType": "bool",
          "name": "",
          "type": "bool"
        }
      ],
      "stateMutability": "view",
      "type": "function",
      "constant": true
    },
    {
      "inputs": [],
      "name": "name",
      "outputs": [
        {
          "internalType": "string",
          "name": "",
          "type": "string"
        }
      ],
      "stateMutability": "view",
      "type": "function",
      "constant": true
    },
    {
      "inputs": [],
      "name": "owner",
      "outputs": [
        {
          "internalType": "address",
          "name": "",
          "type": "address"
        }
      ],
      "stateMutability": "view",
      "type": "function",
      "constant": true
    },
    {
      "inputs": [
        {
          "internalType": "uint256",
          "name": "tokenId",
          "type": "uint256"
        }
      ],
      "name": "ownerOf",
      "outputs": [
        {
          "internalType": "address",
          "name": "",
          "type": "address"
        }
      ],
      "stateMutability": "view",
      "type": "function",
      "constant": true
    },
    {
      "inputs": [],
      "name": "renounceOwnership",
      "outputs": [],
      "stateMutability": "nonpayable",
      "type": "function"
    },
    {
      "inputs": [],
      "name": "royaltyFee",
      "outputs": [
        {
          "internalType": "uint256",
          "name": "",
          "type": "uint256"
        }
      ],
      "stateMutability": "view",
      "type": "function",
      "constant": true
    },
    {
      "inputs": [
        {
          "internalType": "address",
          "name": "from",
          "type": "address"
        },
        {
          "internalType": "address",
          "name": "to",
          "type": "address"
        },
        {
          "internalType": "uint256",
          "name": "tokenId",
          "type": "uint256"
        }
      ],
      "name": "safeTransferFrom",
      "outputs": [],
      "stateMutability": "nonpayable",
      "type": "function"
    },
    {
      "inputs": [
        {
          "internalType": "address",
          "name": "from",
          "type": "address"
        },
        {
          "internalType": "address",
          "name": "to",
          "type": "address"
        },
        {
          "internalType": "uint256",
          "name": "tokenId",
          "type": "uint256"
        },
        {
          "internalType": "bytes",
          "name": "data",
          "type": "bytes"
        }
      ],
      "name": "safeTransferFrom",
      "outputs": [],
      "stateMutability": "nonpayable",
      "type": "function"
    },
    {
      "inputs": [
        {
          "internalType": "address",
          "name": "operator",
          "type": "address"
        },
        {
          "internalType": "bool",
          "name": "approved",
          "type": "bool"
        }
      ],
      "name": "setApprovalForAll",
      "outputs": [],
      "stateMutability": "nonpayable",
      "type": "function"
    },
    {
      "inputs": [],
      "name": "supply",
      "outputs": [
        {
          "internalType": "uint256",
          "name": "",
          "type": "uint256"
        }
      ],
      "stateMutability": "view",
      "type": "function",
      "constant": true
    },
    {
      "inputs": [
        {
          "internalType": "bytes4",
          "name": "interfaceId",
          "type": "bytes4"
        }
      ],
      "name": "supportsInterface",
      "outputs": [
        {
          "internalType": "bool",
          "name": "",
          "type": "bool"
        }
      ],
      "stateMutability": "view",
      "type": "function",
      "constant": true
    },
    {
      "inputs": [],
      "name": "symbol",
      "outputs": [
        {
          "internalType": "string",
          "name": "",
          "type": "string"
        }
      ],
      "stateMutability": "view",
      "type": "function",
      "constant": true
    },
    {
      "inputs": [
        {
          "internalType": "uint256",
          "name": "index",
          "type": "uint256"
        }
      ],
      "name": "tokenByIndex",
      "outputs": [
        {
          "internalType": "uint256",
          "name": "",
          "type": "uint256"
        }
      ],
      "stateMutability": "view",
      "type": "function",
      "constant": true
    },
    {
      "inputs": [
        {
          "internalType": "address",
          "name": "owner",
          "type": "address"
        },
        {
          "internalType": "uint256",
          "name": "index",
          "type": "uint256"
        }
      ],
      "name": "tokenOfOwnerByIndex",
      "outputs": [
        {
          "internalType": "uint256",
          "name": "",
          "type": "uint256"
        }
      ],
      "stateMutability": "view",
      "type": "function",
      "constant": true
    },
    {
      "inputs": [
        {
          "internalType": "uint256",
          "name": "tokenId",
          "type": "uint256"
        }
      ],
      "name": "tokenURI",
      "outputs": [
        {
          "internalType": "string",
          "name": "",
          "type": "string"
        }
      ],
      "stateMutability": "view",
      "type": "function",
      "constant": true
    },
    {
      "inputs": [],
      "name": "totalSupply",
      "outputs": [
        {
          "internalType": "uint256",
          "name": "",
          "type": "uint256"
        }
      ],
      "stateMutability": "view",
      "type": "function",
      "constant": true
    },
    {
      "inputs": [],
      "name": "totalTx",
      "outputs": [
        {
          "internalType": "uint256",
          "name": "",
          "type": "uint256"
        }
      ],
      "stateMutability": "view",
      "type": "function",
      "constant": true
    },
    {
      "inputs": [
        {
          "internalType": "address",
          "name": "from",
          "type": "address"
        },
        {
          "internalType": "address",
          "name": "to",
          "type": "address"
        },
        {
          "internalType": "uint256",
          "name": "tokenId",
          "type": "uint256"
        }
      ],
      "name": "transferFrom",
      "outputs": [],
      "stateMutability": "nonpayable",
      "type": "function"
    },
    {
      "inputs": [
        {
          "internalType": "address",
          "name": "newOwner",
          "type": "address"
        }
      ],
      "name": "transferOwnership",
      "outputs": [],
      "stateMutability": "nonpayable",
      "type": "function"
    },
    {
      "inputs": [
        {
          "internalType": "string",
          "name": "title",
          "type": "string"
        },
        {
          "internalType": "string",
          "name": "description",
          "type": "string"
        },
        {
          "internalType": "string",
          "name": "metadataURI",
          "type": "string"
        },
        {
          "internalType": "uint256",
          "name": "salesPrice",
          "type": "uint256"
        }
      ],
      "name": "payToMint",
      "outputs": [],
      "stateMutability": "payable",
      "type": "function",
      "payable": true
    },
    {
      "inputs": [
        {
          "internalType": "uint256",
          "name": "id",
          "type": "uint256"
        }
      ],
      "name": "payToBuy",
      "outputs": [],
      "stateMutability": "payable",
      "type": "function",
      "payable": true
    },
    {
      "inputs": [
        {
          "internalType": "uint256",
          "name": "id",
          "type": "uint256"
        },
        {
          "internalType": "uint256",
          "name": "newPrice",
          "type": "uint256"
        }
      ],
      "name": "changePrice",
      "outputs": [
        {
          "internalType": "bool",
          "name": "",
          "type": "bool"
        }
      ],
      "stateMutability": "nonpayable",
      "type": "function"
    },
    {
      "inputs": [],
      "name": "getAllNFTs",
      "outputs": [
        {
          "components": [
            {
              "internalType": "uint256",
              "name": "id",
              "type": "uint256"
            },
            {
              "internalType": "address",
              "name": "owner",
              "type": "address"
            },
            {
              "internalType": "uint256",
              "name": "cost",
              "type": "uint256"
            },
            {
              "internalType": "string",
              "name": "title",
              "type": "string"
            },
            {
              "internalType": "string",
              "name": "description",
              "type": "string"
            },
            {
              "internalType": "string",
              "name": "metadataURI",
              "type": "string"
            },
            {
              "internalType": "uint256",
              "name": "timestamp",
              "type": "uint256"
            }
          ],
          "internalType": "struct NFTContract.TransactionStruct[]",
          "name": "",
          "type": "tuple[]"
        }
      ],
      "stateMutability": "view",
      "type": "function",
      "constant": true
    },
    {
      "inputs": [
        {
          "internalType": "uint256",
          "name": "id",
          "type": "uint256"
        }
      ],
      "name": "getNFT",
      "outputs": [
        {
          "components": [
            {
              "internalType": "uint256",
              "name": "id",
              "type": "uint256"
            },
            {
              "internalType": "address",
              "name": "owner",
              "type": "address"
            },
            {
              "internalType": "uint256",
              "name": "cost",
              "type": "uint256"
            },
            {
              "internalType": "string",
              "name": "title",
              "type": "string"
            },
            {
              "internalType": "string",
              "name": "description",
              "type": "string"
            },
            {
              "internalType": "string",
              "name": "metadataURI",
              "type": "string"
            },
            {
              "internalType": "uint256",
              "name": "timestamp",
              "type": "uint256"
            }
          ],
          "internalType": "struct NFTContract.TransactionStruct",
          "name": "",
          "type": "tuple"
        }
      ],
      "stateMutability": "view",
      "type": "function",
      "constant": true
    },
    {
      "inputs": [],
      "name": "getAllTransactions",
      "outputs": [
        {
          "components": [
            {
              "internalType": "uint256",
              "name": "id",
              "type": "uint256"
            },
            {
              "internalType": "address",
              "name": "owner",
              "type": "address"
            },
            {
              "internalType": "uint256",
              "name": "cost",
              "type": "uint256"
            },
            {
              "internalType": "string",
              "name": "title",
              "type": "string"
            },
            {
              "internalType": "string",
              "name": "description",
              "type": "string"
            },
            {
              "internalType": "string",
              "name": "metadataURI",
              "type": "string"
            },
            {
              "internalType": "uint256",
              "name": "timestamp",
              "type": "uint256"
            }
          ],
          "internalType": "struct NFTContract.TransactionStruct[]",
          "name": "",
          "type": "tuple[]"
        }
      ],
      "stateMutability": "view",
      "type": "function",
      "constant": true
    }
  ],
  "bytecode": "0x60806040526000600f556000601055662386f26fc100006011553480156200002657600080fd5b5060405162005da438038062005da483398181016040528101906200004c9190620003e7565b838381600090816200005f9190620006d8565b508060019081620000719190620006d8565b5050506200009462000088620000e660201b60201c565b620000ee60201b60201c565b81600e8190555080600d60006101000a81548173ffffffffffffffffffffffffffffffffffffffff021916908373ffffffffffffffffffffffffffffffffffffffff16021790555050505050620007bf565b600033905090565b6000600a60009054906101000a900473ffffffffffffffffffffffffffffffffffffffff16905081600a60006101000a81548173ffffffffffffffffffffffffffffffffffffffff021916908373ffffffffffffffffffffffffffffffffffffffff1602179055508173ffffffffffffffffffffffffffffffffffffffff168173ffffffffffffffffffffffffffffffffffffffff167f8be0079c531659141344cd1fd0a4f28419497f9722a3daafe3b4186f6b6457e060405160405180910390a35050565b6000604051905090565b600080fd5b600080fd5b600080fd5b600080fd5b6000601f19601f8301169050919050565b7f4e487b7100000000000000000000000000000000000000000000000000000000600052604160045260246000fd5b6200021d82620001d2565b810181811067ffffffffffffffff821117156200023f576200023e620001e3565b5b80604052505050565b600062000254620001b4565b905062000262828262000212565b919050565b600067ffffffffffffffff821115620002855762000284620001e3565b5b6200029082620001d2565b9050602081019050919050565b60005b83811015620002bd578082015181840152602081019050620002a0565b60008484015250505050565b6000620002e0620002da8462000267565b62000248565b905082815260208101848484011115620002ff57620002fe620001cd565b5b6200030c8482856200029d565b509392505050565b600082601f8301126200032c576200032b620001c8565b5b81516200033e848260208601620002c9565b91505092915050565b6000819050919050565b6200035c8162000347565b81146200036857600080fd5b50565b6000815190506200037c8162000351565b92915050565b600073ffffffffffffffffffffffffffffffffffffffff82169050919050565b6000620003af8262000382565b9050919050565b620003c181620003a2565b8114620003cd57600080fd5b50565b600081519050620003e181620003b6565b92915050565b60008060008060808587031215620004045762000403620001be565b5b600085015167ffffffffffffffff811115620004255762000424620001c3565b5b620004338782880162000314565b945050602085015167ffffffffffffffff811115620004575762000456620001c3565b5b620004658782880162000314565b935050604062000478878288016200036b565b92505060606200048b87828801620003d0565b91505092959194509250565b600081519050919050565b7f4e487b7100000000000000000000000000000000000000000000000000000000600052602260045260246000fd5b60006002820490506001821680620004ea57607f821691505b6020821081036200050057620004ff620004a2565b5b50919050565b60008190508160005260206000209050919050565b60006020601f8301049050919050565b600082821b905092915050565b6000600883026200056a7fffffffffffffffffffffffffffffffffffffffffffffffffffffffffffffffff826200052b565b6200057686836200052b565b95508019841693508086168417925050509392505050565b6000819050919050565b6000620005b9620005b3620005ad8462000347565b6200058e565b62000347565b9050919050565b6000819050919050565b620005d58362000598565b620005ed620005e482620005c0565b84845462000538565b825550505050565b600090565b62000604620005f5565b62000611818484620005ca565b505050565b5b8181101562000639576200062d600082620005fa565b60018101905062000617565b5050565b601f8211156200068857620006528162000506565b6200065d846200051b565b810160208510156200066d578190505b620006856200067c856200051b565b83018262000616565b50505b505050565b600082821c905092915050565b6000620006ad600019846008026200068d565b1980831691505092915050565b6000620006c883836200069a565b9150826002028217905092915050565b620006e38262000497565b67ffffffffffffffff811115620006ff57620006fe620001e3565b5b6200070b8254620004d1565b620007188282856200063d565b600060209050601f8311600181146200075057600084156200073b578287015190505b620007478582620006ba565b865550620007b7565b601f198416620007608662000506565b60005b828110156200078a5784890151825560018201915060208501945060208101905062000763565b86831015620007aa5784890151620007a6601f8916826200069a565b8355505b6001600288020188555050505b505050505050565b6155d580620007cf6000396000f3fe6080604052600436106101d85760003560e01c806370a0823111610102578063b3de019c11610095578063dbacc23711610064578063dbacc237146106cc578063e0391b0914610709578063e985e9c514610734578063f2fde38b14610771576101d8565b8063b3de019c146105fe578063b88d4fde1461063b578063b8997a9714610664578063c87b56dd1461068f576101d8565b80638da5cb5b116100d15780638da5cb5b1461056357806395d89b411461058e5780639ba4b017146105b9578063a22cb465146105d5576101d8565b806370a08231146104c8578063715018a6146105055780637220cf391461051c578063799c0c1e14610547576101d8565b806323b872dd1161017a57806343bc16121161014957806343bc1612146103e65780634f6ccce714610411578063576f7ea71461044e5780636352211e1461048b576101d8565b806323b872dd1461032c57806327506f53146103555780632f745c591461038057806342842e0e146103bd576101d8565b8063081812fc116101b6578063081812fc14610270578063095ea7b3146102ad57806313faede6146102d657806318160ddd14610301576101d8565b806301ffc9a7146101dd578063047fc9aa1461021a57806306fdde0314610245575b600080fd5b3480156101e957600080fd5b5061020460048036038101906101ff9190613990565b61079a565b60405161021191906139d8565b60405180910390f35b34801561022657600080fd5b5061022f610814565b60405161023c9190613a0c565b60405180910390f35b34801561025157600080fd5b5061025a61081a565b6040516102679190613ab7565b60405180910390f35b34801561027c57600080fd5b5061029760048036038101906102929190613b05565b6108ac565b6040516102a49190613b73565b60405180910390f35b3480156102b957600080fd5b506102d460048036038101906102cf9190613bba565b6108f2565b005b3480156102e257600080fd5b506102eb610a09565b6040516102f89190613a0c565b60405180910390f35b34801561030d57600080fd5b50610316610a0f565b6040516103239190613a0c565b60405180910390f35b34801561033857600080fd5b50610353600480360381019061034e9190613bfa565b610a1c565b005b34801561036157600080fd5b5061036a610a7c565b6040516103779190613e21565b60405180910390f35b34801561038c57600080fd5b506103a760048036038101906103a29190613bba565b610d05565b6040516103b49190613a0c565b60405180910390f35b3480156103c957600080fd5b506103e460048036038101906103df9190613bfa565b610daa565b005b3480156103f257600080fd5b506103fb610dca565b6040516104089190613b73565b60405180910390f35b34801561041d57600080fd5b5061043860048036038101906104339190613b05565b610df0565b6040516104459190613a0c565b60405180910390f35b34801561045a57600080fd5b5061047560048036038101906104709190613b05565b610e61565b6040516104829190613eed565b60405180910390f35b34801561049757600080fd5b506104b260048036038101906104ad9190613b05565b6110d3565b6040516104bf9190613b73565b60405180910390f35b3480156104d457600080fd5b506104ef60048036038101906104ea9190613f0f565b611159565b6040516104fc9190613a0c565b60405180910390f35b34801561051157600080fd5b5061051a611210565b005b34801561052857600080fd5b50610531611224565b60405161053e9190613a0c565b60405180910390f35b610561600480360381019061055c9190614071565b61122a565b005b34801561056f57600080fd5b506105786115e7565b6040516105859190613b73565b60405180910390f35b34801561059a57600080fd5b506105a3611611565b6040516105b09190613ab7565b60405180910390f35b6105d360048036038101906105ce9190613b05565b6116a3565b005b3480156105e157600080fd5b506105fc60048036038101906105f79190614158565b611ce2565b005b34801561060a57600080fd5b5061062560048036038101906106209190614198565b611cf8565b60405161063291906139d8565b60405180910390f35b34801561064757600080fd5b50610662600480360381019061065d9190614279565b611e3b565b005b34801561067057600080fd5b50610679611e9d565b6040516106869190613a0c565b60405180910390f35b34801561069b57600080fd5b506106b660048036038101906106b19190613b05565b611ea3565b6040516106c39190613ab7565b60405180910390f35b3480156106d857600080fd5b506106f360048036038101906106ee9190613b05565b611f0b565b6040516107009190613b73565b60405180910390f35b34801561071557600080fd5b5061071e611f3e565b60405161072b9190613e21565b60405180910390f35b34801561074057600080fd5b5061075b600480360381019061075691906142fc565b6121c7565b60405161076891906139d8565b60405180910390f35b34801561077d57600080fd5b5061079860048036038101906107939190613f0f565b61225b565b005b60007f780e9d63000000000000000000000000000000000000000000000000000000007bffffffffffffffffffffffffffffffffffffffffffffffffffffffff1916827bffffffffffffffffffffffffffffffffffffffffffffffffffffffff1916148061080d575061080c826122de565b5b9050919050565b600f5481565b6060600080546108299061436b565b80601f01602080910402602001604051908101604052809291908181526020018280546108559061436b565b80156108a25780601f10610877576101008083540402835291602001916108a2565b820191906000526020600020905b81548152906001019060200180831161088557829003601f168201915b5050505050905090565b60006108b7826123c0565b6004600083815260200190815260200160002060009054906101000a900473ffffffffffffffffffffffffffffffffffffffff169050919050565b60006108fd826110d3565b90508073ffffffffffffffffffffffffffffffffffffffff168373ffffffffffffffffffffffffffffffffffffffff160361096d576040517f08c379a00000000000000000000000000000000000000000000000000000000081526004016109649061440e565b60405180910390fd5b8073ffffffffffffffffffffffffffffffffffffffff1661098c61240b565b73ffffffffffffffffffffffffffffffffffffffff1614806109bb57506109ba816109b561240b565b6121c7565b5b6109fa576040517f08c379a00000000000000000000000000000000000000000000000000000000081526004016109f1906144a0565b60405180910390fd5b610a048383612413565b505050565b60115481565b6000600880549050905090565b610a2d610a2761240b565b826124cc565b610a6c576040517f08c379a0000000000000000000000000000000000000000000000000000000008152600401610a6390614532565b60405180910390fd5b610a77838383612561565b505050565b60606012805480602002602001604051908101604052809291908181526020016000905b82821015610cfc57838290600052602060002090600702016040518060e0016040529081600082015481526020016001820160009054906101000a900473ffffffffffffffffffffffffffffffffffffffff1673ffffffffffffffffffffffffffffffffffffffff1673ffffffffffffffffffffffffffffffffffffffff16815260200160028201548152602001600382018054610b3d9061436b565b80601f0160208091040260200160405190810160405280929190818152602001828054610b699061436b565b8015610bb65780601f10610b8b57610100808354040283529160200191610bb6565b820191906000526020600020905b815481529060010190602001808311610b9957829003601f168201915b50505050508152602001600482018054610bcf9061436b565b80601f0160208091040260200160405190810160405280929190818152602001828054610bfb9061436b565b8015610c485780601f10610c1d57610100808354040283529160200191610c48565b820191906000526020600020905b815481529060010190602001808311610c2b57829003601f168201915b50505050508152602001600582018054610c619061436b565b80601f0160208091040260200160405190810160405280929190818152602001828054610c8d9061436b565b8015610cda5780601f10610caf57610100808354040283529160200191610cda565b820191906000526020600020905b815481529060010190602001808311610cbd57829003601f168201915b5050505050815260200160068201548152505081526020019060010190610aa0565b50505050905090565b6000610d1083611159565b8210610d51576040517f08c379a0000000000000000000000000000000000000000000000000000000008152600401610d48906145c4565b60405180910390fd5b600660008473ffffffffffffffffffffffffffffffffffffffff1673ffffffffffffffffffffffffffffffffffffffff168152602001908152602001600020600083815260200190815260200160002054905092915050565b610dc583838360405180602001604052806000815250611e3b565b505050565b600d60009054906101000a900473ffffffffffffffffffffffffffffffffffffffff1681565b6000610dfa610a0f565b8210610e3b576040517f08c379a0000000000000000000000000000000000000000000000000000000008152600401610e3290614656565b60405180910390fd5b60088281548110610e4f57610e4e614676565b5b90600052602060002001549050919050565b610e696138d1565b6013600183610e7891906146d4565b81548110610e8957610e88614676565b5b90600052602060002090600702016040518060e0016040529081600082015481526020016001820160009054906101000a900473ffffffffffffffffffffffffffffffffffffffff1673ffffffffffffffffffffffffffffffffffffffff1673ffffffffffffffffffffffffffffffffffffffff16815260200160028201548152602001600382018054610f1c9061436b565b80601f0160208091040260200160405190810160405280929190818152602001828054610f489061436b565b8015610f955780601f10610f6a57610100808354040283529160200191610f95565b820191906000526020600020905b815481529060010190602001808311610f7857829003601f168201915b50505050508152602001600482018054610fae9061436b565b80601f0160208091040260200160405190810160405280929190818152602001828054610fda9061436b565b80156110275780601f10610ffc57610100808354040283529160200191611027565b820191906000526020600020905b81548152906001019060200180831161100a57829003601f168201915b505050505081526020016005820180546110409061436b565b80601f016020809104026020016040519081016040528092919081815260200182805461106c9061436b565b80156110b95780601f1061108e576101008083540402835291602001916110b9565b820191906000526020600020905b81548152906001019060200180831161109c57829003601f168201915b505050505081526020016006820154815250509050919050565b6000806110df8361285a565b9050600073ffffffffffffffffffffffffffffffffffffffff168173ffffffffffffffffffffffffffffffffffffffff1603611150576040517f08c379a000000000000000000000000000000000000000000000000000000000815260040161114790614754565b60405180910390fd5b80915050919050565b60008073ffffffffffffffffffffffffffffffffffffffff168273ffffffffffffffffffffffffffffffffffffffff16036111c9576040517f08c379a00000000000000000000000000000000000000000000000000000000081526004016111c0906147e6565b60405180910390fd5b600360008373ffffffffffffffffffffffffffffffffffffffff1673ffffffffffffffffffffffffffffffffffffffff168152602001908152602001600020549050919050565b611218612897565b6112226000612915565b565b60105481565b60115434101561126f576040517f08c379a000000000000000000000000000000000000000000000000000000000815260040161126690614852565b60405180910390fd5b6000600b8360405161128191906148ae565b908152602001604051809103902060009054906101000a900460ff1660ff16146112e0576040517f08c379a00000000000000000000000000000000000000000000000000000000081526004016112d790614911565b60405180910390fd5b6112e86115e7565b73ffffffffffffffffffffffffffffffffffffffff163373ffffffffffffffffffffffffffffffffffffffff1603611355576040517f08c379a000000000000000000000000000000000000000000000000000000000815260040161134c9061497d565b60405180910390fd5b60006064600e5434611367919061499d565b6113719190614a0e565b905061139f600d60009054906101000a900473ffffffffffffffffffffffffffffffffffffffff16826129db565b6113bb6113aa6115e7565b82346113b691906146d4565b6129db565b600f60008154809291906113ce90614a3f565b919050555060136040518060e00160405280600f5481526020013373ffffffffffffffffffffffffffffffffffffffff1681526020018481526020018781526020018681526020018581526020014281525090806001815401808255809150506001900390600052602060002090600702016000909190919091506000820151816000015560208201518160010160006101000a81548173ffffffffffffffffffffffffffffffffffffffff021916908373ffffffffffffffffffffffffffffffffffffffff1602179055506040820151816002015560608201518160030190816114b99190614c33565b5060808201518160040190816114cf9190614c33565b5060a08201518160050190816114e59190614c33565b5060c0820151816006015550503373ffffffffffffffffffffffffffffffffffffffff167fb9508407a6eccb191d8da3286f4173697cf95604e9ea192fe5ab7c862b5221f6600f543486426040516115409493929190614d05565b60405180910390a261155433600f54612a56565b6001600b8460405161156691906148ae565b908152602001604051809103902060006101000a81548160ff021916908360ff16021790555033600c6000600f54815260200190815260200160002060006101000a81548173ffffffffffffffffffffffffffffffffffffffff021916908373ffffffffffffffffffffffffffffffffffffffff1602179055505050505050565b6000600a60009054906101000a900473ffffffffffffffffffffffffffffffffffffffff16905090565b6060600180546116209061436b565b80601f016020809104026020016040519081016040528092919081815260200182805461164c9061436b565b80156116995780601f1061166e57610100808354040283529160200191611699565b820191906000526020600020905b81548152906001019060200180831161167c57829003601f168201915b5050505050905090565b60136001826116b291906146d4565b815481106116c3576116c2614676565b5b906000526020600020906007020160020154341015611717576040517f08c379a000000000000000000000000000000000000000000000000000000000815260040161170e90614d9d565b60405180910390fd5b601360018261172691906146d4565b8154811061173757611736614676565b5b906000526020600020906007020160010160009054906101000a900473ffffffffffffffffffffffffffffffffffffffff1673ffffffffffffffffffffffffffffffffffffffff163373ffffffffffffffffffffffffffffffffffffffff16036117d6576040517f08c379a00000000000000000000000000000000000000000000000000000000081526004016117cd90614e09565b60405180910390fd5b60006064600e54346117e8919061499d565b6117f29190614a0e565b9050611820600d60009054906101000a900473ffffffffffffffffffffffffffffffffffffffff16826129db565b611886601360018461183291906146d4565b8154811061184357611842614676565b5b906000526020600020906007020160010160009054906101000a900473ffffffffffffffffffffffffffffffffffffffff16823461188191906146d4565b6129db565b6010600081548092919061189990614a3f565b919050555060126040518060e0016040528060105481526020013373ffffffffffffffffffffffffffffffffffffffff16815260200134815260200160136001866118e491906146d4565b815481106118f5576118f4614676565b5b906000526020600020906007020160030180546119119061436b565b80601f016020809104026020016040519081016040528092919081815260200182805461193d9061436b565b801561198a5780601f1061195f5761010080835404028352916020019161198a565b820191906000526020600020905b81548152906001019060200180831161196d57829003601f168201915b5050505050815260200160136001866119a391906146d4565b815481106119b4576119b3614676565b5b906000526020600020906007020160040180546119d09061436b565b80601f01602080910402602001604051908101604052809291908181526020018280546119fc9061436b565b8015611a495780601f10611a1e57610100808354040283529160200191611a49565b820191906000526020600020905b815481529060010190602001808311611a2c57829003601f168201915b505050505081526020016013600186611a6291906146d4565b81548110611a7357611a72614676565b5b90600052602060002090600702016005018054611a8f9061436b565b80601f0160208091040260200160405190810160405280929190818152602001828054611abb9061436b565b8015611b085780601f10611add57610100808354040283529160200191611b08565b820191906000526020600020905b815481529060010190602001808311611aeb57829003601f168201915b505050505081526020014281525090806001815401808255809150506001900390600052602060002090600702016000909190919091506000820151816000015560208201518160010160006101000a81548173ffffffffffffffffffffffffffffffffffffffff021916908373ffffffffffffffffffffffffffffffffffffffff160217905550604082015181600201556060820151816003019081611baf9190614c33565b506080820151816004019081611bc59190614c33565b5060a0820151816005019081611bdb9190614c33565b5060c0820151816006015550503373ffffffffffffffffffffffffffffffffffffffff167fb9508407a6eccb191d8da3286f4173697cf95604e9ea192fe5ab7c862b5221f6601054346013600187611c3391906146d4565b81548110611c4457611c43614676565b5b906000526020600020906007020160050142604051611c669493929190614ead565b60405180910390a2336013600184611c7e91906146d4565b81548110611c8f57611c8e614676565b5b906000526020600020906007020160010160006101000a81548173ffffffffffffffffffffffffffffffffffffffff021916908373ffffffffffffffffffffffffffffffffffffffff1602179055505050565b611cf4611ced61240b565b8383612a74565b5050565b6000808211611d3c576040517f08c379a0000000000000000000000000000000000000000000000000000000008152600401611d3390614f45565b60405180910390fd5b6013600184611d4b91906146d4565b81548110611d5c57611d5b614676565b5b906000526020600020906007020160010160009054906101000a900473ffffffffffffffffffffffffffffffffffffffff1673ffffffffffffffffffffffffffffffffffffffff163373ffffffffffffffffffffffffffffffffffffffff1614611dfb576040517f08c379a0000000000000000000000000000000000000000000000000000000008152600401611df290614e09565b60405180910390fd5b816013600185611e0b91906146d4565b81548110611e1c57611e1b614676565b5b9060005260206000209060070201600201819055506001905092915050565b611e4c611e4661240b565b836124cc565b611e8b576040517f08c379a0000000000000000000000000000000000000000000000000000000008152600401611e8290614532565b60405180910390fd5b611e9784848484612be0565b50505050565b600e5481565b6060611eae826123c0565b6000611eb8612c3c565b90506000815111611ed85760405180602001604052806000815250611f03565b80611ee284612c53565b604051602001611ef3929190614f65565b6040516020818303038152906040525b915050919050565b600c6020528060005260406000206000915054906101000a900473ffffffffffffffffffffffffffffffffffffffff1681565b60606013805480602002602001604051908101604052809291908181526020016000905b828210156121be57838290600052602060002090600702016040518060e0016040529081600082015481526020016001820160009054906101000a900473ffffffffffffffffffffffffffffffffffffffff1673ffffffffffffffffffffffffffffffffffffffff1673ffffffffffffffffffffffffffffffffffffffff16815260200160028201548152602001600382018054611fff9061436b565b80601f016020809104026020016040519081016040528092919081815260200182805461202b9061436b565b80156120785780601f1061204d57610100808354040283529160200191612078565b820191906000526020600020905b81548152906001019060200180831161205b57829003601f168201915b505050505081526020016004820180546120919061436b565b80601f01602080910402602001604051908101604052809291908181526020018280546120bd9061436b565b801561210a5780601f106120df5761010080835404028352916020019161210a565b820191906000526020600020905b8154815290600101906020018083116120ed57829003601f168201915b505050505081526020016005820180546121239061436b565b80601f016020809104026020016040519081016040528092919081815260200182805461214f9061436b565b801561219c5780601f106121715761010080835404028352916020019161219c565b820191906000526020600020905b81548152906001019060200180831161217f57829003601f168201915b5050505050815260200160068201548152505081526020019060010190611f62565b50505050905090565b6000600560008473ffffffffffffffffffffffffffffffffffffffff1673ffffffffffffffffffffffffffffffffffffffff16815260200190815260200160002060008373ffffffffffffffffffffffffffffffffffffffff1673ffffffffffffffffffffffffffffffffffffffff16815260200190815260200160002060009054906101000a900460ff16905092915050565b612263612897565b600073ffffffffffffffffffffffffffffffffffffffff168173ffffffffffffffffffffffffffffffffffffffff16036122d2576040517f08c379a00000000000000000000000000000000000000000000000000000000081526004016122c990614ffb565b60405180910390fd5b6122db81612915565b50565b60007f80ac58cd000000000000000000000000000000000000000000000000000000007bffffffffffffffffffffffffffffffffffffffffffffffffffffffff1916827bffffffffffffffffffffffffffffffffffffffffffffffffffffffff191614806123a957507f5b5e139f000000000000000000000000000000000000000000000000000000007bffffffffffffffffffffffffffffffffffffffffffffffffffffffff1916827bffffffffffffffffffffffffffffffffffffffffffffffffffffffff1916145b806123b957506123b882612d21565b5b9050919050565b6123c981612d8b565b612408576040517f08c379a00000000000000000000000000000000000000000000000000000000081526004016123ff90614754565b60405180910390fd5b50565b600033905090565b816004600083815260200190815260200160002060006101000a81548173ffffffffffffffffffffffffffffffffffffffff021916908373ffffffffffffffffffffffffffffffffffffffff160217905550808273ffffffffffffffffffffffffffffffffffffffff16612486836110d3565b73ffffffffffffffffffffffffffffffffffffffff167f8c5be1e5ebec7d5bd14f71427d1e84f3dd0314c0f7b2291e5b200ac8c7c3b92560405160405180910390a45050565b6000806124d8836110d3565b90508073ffffffffffffffffffffffffffffffffffffffff168473ffffffffffffffffffffffffffffffffffffffff16148061251a575061251981856121c7565b5b8061255857508373ffffffffffffffffffffffffffffffffffffffff16612540846108ac565b73ffffffffffffffffffffffffffffffffffffffff16145b91505092915050565b8273ffffffffffffffffffffffffffffffffffffffff16612581826110d3565b73ffffffffffffffffffffffffffffffffffffffff16146125d7576040517f08c379a00000000000000000000000000000000000000000000000000000000081526004016125ce9061508d565b60405180910390fd5b600073ffffffffffffffffffffffffffffffffffffffff168273ffffffffffffffffffffffffffffffffffffffff1603612646576040517f08c379a000000000000000000000000000000000000000000000000000000000815260040161263d9061511f565b60405180910390fd5b6126538383836001612dcc565b8273ffffffffffffffffffffffffffffffffffffffff16612673826110d3565b73ffffffffffffffffffffffffffffffffffffffff16146126c9576040517f08c379a00000000000000000000000000000000000000000000000000000000081526004016126c09061508d565b60405180910390fd5b6004600082815260200190815260200160002060006101000a81549073ffffffffffffffffffffffffffffffffffffffff02191690556001600360008573ffffffffffffffffffffffffffffffffffffffff1673ffffffffffffffffffffffffffffffffffffffff168152602001908152602001600020600082825403925050819055506001600360008473ffffffffffffffffffffffffffffffffffffffff1673ffffffffffffffffffffffffffffffffffffffff16815260200190815260200160002060008282540192505081905550816002600083815260200190815260200160002060006101000a81548173ffffffffffffffffffffffffffffffffffffffff021916908373ffffffffffffffffffffffffffffffffffffffff160217905550808273ffffffffffffffffffffffffffffffffffffffff168473ffffffffffffffffffffffffffffffffffffffff167fddf252ad1be2c89b69c2b068fc378daa952ba7f163c4a11628f55a4df523b3ef60405160405180910390a46128558383836001612f2a565b505050565b60006002600083815260200190815260200160002060009054906101000a900473ffffffffffffffffffffffffffffffffffffffff169050919050565b61289f61240b565b73ffffffffffffffffffffffffffffffffffffffff166128bd6115e7565b73ffffffffffffffffffffffffffffffffffffffff1614612913576040517f08c379a000000000000000000000000000000000000000000000000000000000815260040161290a9061518b565b60405180910390fd5b565b6000600a60009054906101000a900473ffffffffffffffffffffffffffffffffffffffff16905081600a60006101000a81548173ffffffffffffffffffffffffffffffffffffffff021916908373ffffffffffffffffffffffffffffffffffffffff1602179055508173ffffffffffffffffffffffffffffffffffffffff168173ffffffffffffffffffffffffffffffffffffffff167f8be0079c531659141344cd1fd0a4f28419497f9722a3daafe3b4186f6b6457e060405160405180910390a35050565b60008273ffffffffffffffffffffffffffffffffffffffff1682604051612a01906151dc565b60006040518083038185875af1925050503d8060008114612a3e576040519150601f19603f3d011682016040523d82523d6000602084013e612a43565b606091505b5050905080612a5157600080fd5b505050565b612a70828260405180602001604052806000815250612f30565b5050565b8173ffffffffffffffffffffffffffffffffffffffff168373ffffffffffffffffffffffffffffffffffffffff1603612ae2576040517f08c379a0000000000000000000000000000000000000000000000000000000008152600401612ad99061523d565b60405180910390fd5b80600560008573ffffffffffffffffffffffffffffffffffffffff1673ffffffffffffffffffffffffffffffffffffffff16815260200190815260200160002060008473ffffffffffffffffffffffffffffffffffffffff1673ffffffffffffffffffffffffffffffffffffffff16815260200190815260200160002060006101000a81548160ff0219169083151502179055508173ffffffffffffffffffffffffffffffffffffffff168373ffffffffffffffffffffffffffffffffffffffff167f17307eab39ab6107e8899845ad3d59bd9653f200f220920489ca2b5937696c3183604051612bd391906139d8565b60405180910390a3505050565b612beb848484612561565b612bf784848484612f8b565b612c36576040517f08c379a0000000000000000000000000000000000000000000000000000000008152600401612c2d906152cf565b60405180910390fd5b50505050565b606060405180602001604052806000815250905090565b606060006001612c6284613112565b01905060008167ffffffffffffffff811115612c8157612c80613f46565b5b6040519080825280601f01601f191660200182016040528015612cb35781602001600182028036833780820191505090505b509050600082602001820190505b600115612d16578080600190039150507f3031323334353637383961626364656600000000000000000000000000000000600a86061a8153600a8581612d0a57612d096149df565b5b04945060008503612cc1575b819350505050919050565b60007f01ffc9a7000000000000000000000000000000000000000000000000000000007bffffffffffffffffffffffffffffffffffffffffffffffffffffffff1916827bffffffffffffffffffffffffffffffffffffffffffffffffffffffff1916149050919050565b60008073ffffffffffffffffffffffffffffffffffffffff16612dad8361285a565b73ffffffffffffffffffffffffffffffffffffffff1614159050919050565b612dd884848484613265565b6001811115612e1c576040517f08c379a0000000000000000000000000000000000000000000000000000000008152600401612e1390615361565b60405180910390fd5b6000829050600073ffffffffffffffffffffffffffffffffffffffff168573ffffffffffffffffffffffffffffffffffffffff1603612e6357612e5e8161338b565b612ea2565b8373ffffffffffffffffffffffffffffffffffffffff168573ffffffffffffffffffffffffffffffffffffffff1614612ea157612ea085826133d4565b5b5b600073ffffffffffffffffffffffffffffffffffffffff168473ffffffffffffffffffffffffffffffffffffffff1603612ee457612edf81613541565b612f23565b8473ffffffffffffffffffffffffffffffffffffffff168473ffffffffffffffffffffffffffffffffffffffff1614612f2257612f218482613612565b5b5b5050505050565b50505050565b612f3a8383613691565b612f476000848484612f8b565b612f86576040517f08c379a0000000000000000000000000000000000000000000000000000000008152600401612f7d906152cf565b60405180910390fd5b505050565b6000612fac8473ffffffffffffffffffffffffffffffffffffffff166138ae565b15613105578373ffffffffffffffffffffffffffffffffffffffff1663150b7a02612fd561240b565b8786866040518563ffffffff1660e01b8152600401612ff794939291906153d6565b6020604051808303816000875af192505050801561303357506040513d601f19601f820116820180604052508101906130309190615437565b60015b6130b5573d8060008114613063576040519150601f19603f3d011682016040523d82523d6000602084013e613068565b606091505b5060008151036130ad576040517f08c379a00000000000000000000000000000000000000000000000000000000081526004016130a4906152cf565b60405180910390fd5b805181602001fd5b63150b7a0260e01b7bffffffffffffffffffffffffffffffffffffffffffffffffffffffff1916817bffffffffffffffffffffffffffffffffffffffffffffffffffffffff19161491505061310a565b600190505b949350505050565b600080600090507a184f03e93ff9f4daa797ed6e38ed64bf6a1f0100000000000000008310613170577a184f03e93ff9f4daa797ed6e38ed64bf6a1f0100000000000000008381613166576131656149df565b5b0492506040810190505b6d04ee2d6d415b85acef810000000083106131ad576d04ee2d6d415b85acef810000000083816131a3576131a26149df565b5b0492506020810190505b662386f26fc1000083106131dc57662386f26fc1000083816131d2576131d16149df565b5b0492506010810190505b6305f5e1008310613205576305f5e10083816131fb576131fa6149df565b5b0492506008810190505b612710831061322a5761271083816132205761321f6149df565b5b0492506004810190505b6064831061324d5760648381613243576132426149df565b5b0492506002810190505b600a831061325c576001810190505b80915050919050565b600181111561338557600073ffffffffffffffffffffffffffffffffffffffff168473ffffffffffffffffffffffffffffffffffffffff16146132f95780600360008673ffffffffffffffffffffffffffffffffffffffff1673ffffffffffffffffffffffffffffffffffffffff16815260200190815260200160002060008282546132f191906146d4565b925050819055505b600073ffffffffffffffffffffffffffffffffffffffff168373ffffffffffffffffffffffffffffffffffffffff16146133845780600360008573ffffffffffffffffffffffffffffffffffffffff1673ffffffffffffffffffffffffffffffffffffffff168152602001908152602001600020600082825461337c9190615464565b925050819055505b5b50505050565b6008805490506009600083815260200190815260200160002081905550600881908060018154018082558091505060019003906000526020600020016000909190919091505550565b600060016133e184611159565b6133eb91906146d4565b90506000600760008481526020019081526020016000205490508181146134d0576000600660008673ffffffffffffffffffffffffffffffffffffffff1673ffffffffffffffffffffffffffffffffffffffff168152602001908152602001600020600084815260200190815260200160002054905080600660008773ffffffffffffffffffffffffffffffffffffffff1673ffffffffffffffffffffffffffffffffffffffff168152602001908152602001600020600084815260200190815260200160002081905550816007600083815260200190815260200160002081905550505b6007600084815260200190815260200160002060009055600660008573ffffffffffffffffffffffffffffffffffffffff1673ffffffffffffffffffffffffffffffffffffffff16815260200190815260200160002060008381526020019081526020016000206000905550505050565b6000600160088054905061355591906146d4565b905060006009600084815260200190815260200160002054905060006008838154811061358557613584614676565b5b9060005260206000200154905080600883815481106135a7576135a6614676565b5b9060005260206000200181905550816009600083815260200190815260200160002081905550600960008581526020019081526020016000206000905560088054806135f6576135f5615498565b5b6001900381819060005260206000200160009055905550505050565b600061361d83611159565b905081600660008573ffffffffffffffffffffffffffffffffffffffff1673ffffffffffffffffffffffffffffffffffffffff168152602001908152602001600020600083815260200190815260200160002081905550806007600084815260200190815260200160002081905550505050565b600073ffffffffffffffffffffffffffffffffffffffff168273ffffffffffffffffffffffffffffffffffffffff1603613700576040517f08c379a00000000000000000000000000000000000000000000000000000000081526004016136f790615513565b60405180910390fd5b61370981612d8b565b15613749576040517f08c379a00000000000000000000000000000000000000000000000000000000081526004016137409061557f565b60405180910390fd5b613757600083836001612dcc565b61376081612d8b565b156137a0576040517f08c379a00000000000000000000000000000000000000000000000000000000081526004016137979061557f565b60405180910390fd5b6001600360008473ffffffffffffffffffffffffffffffffffffffff1673ffffffffffffffffffffffffffffffffffffffff16815260200190815260200160002060008282540192505081905550816002600083815260200190815260200160002060006101000a81548173ffffffffffffffffffffffffffffffffffffffff021916908373ffffffffffffffffffffffffffffffffffffffff160217905550808273ffffffffffffffffffffffffffffffffffffffff16600073ffffffffffffffffffffffffffffffffffffffff167fddf252ad1be2c89b69c2b068fc378daa952ba7f163c4a11628f55a4df523b3ef60405160405180910390a46138aa600083836001612f2a565b5050565b6000808273ffffffffffffffffffffffffffffffffffffffff163b119050919050565b6040518060e0016040528060008152602001600073ffffffffffffffffffffffffffffffffffffffff16815260200160008152602001606081526020016060815260200160608152602001600081525090565b6000604051905090565b600080fd5b600080fd5b60007fffffffff0000000000000000000000000000000000000000000000000000000082169050919050565b61396d81613938565b811461397857600080fd5b50565b60008135905061398a81613964565b92915050565b6000602082840312156139a6576139a561392e565b5b60006139b48482850161397b565b91505092915050565b60008115159050919050565b6139d2816139bd565b82525050565b60006020820190506139ed60008301846139c9565b92915050565b6000819050919050565b613a06816139f3565b82525050565b6000602082019050613a2160008301846139fd565b92915050565b600081519050919050565b600082825260208201905092915050565b60005b83811015613a61578082015181840152602081019050613a46565b60008484015250505050565b6000601f19601f8301169050919050565b6000613a8982613a27565b613a938185613a32565b9350613aa3818560208601613a43565b613aac81613a6d565b840191505092915050565b60006020820190508181036000830152613ad18184613a7e565b905092915050565b613ae2816139f3565b8114613aed57600080fd5b50565b600081359050613aff81613ad9565b92915050565b600060208284031215613b1b57613b1a61392e565b5b6000613b2984828501613af0565b91505092915050565b600073ffffffffffffffffffffffffffffffffffffffff82169050919050565b6000613b5d82613b32565b9050919050565b613b6d81613b52565b82525050565b6000602082019050613b886000830184613b64565b92915050565b613b9781613b52565b8114613ba257600080fd5b50565b600081359050613bb481613b8e565b92915050565b60008060408385031215613bd157613bd061392e565b5b6000613bdf85828601613ba5565b9250506020613bf085828601613af0565b9150509250929050565b600080600060608486031215613c1357613c1261392e565b5b6000613c2186828701613ba5565b9350506020613c3286828701613ba5565b9250506040613c4386828701613af0565b9150509250925092565b600081519050919050565b600082825260208201905092915050565b6000819050602082019050919050565b613c82816139f3565b82525050565b613c9181613b52565b82525050565b600082825260208201905092915050565b6000613cb382613a27565b613cbd8185613c97565b9350613ccd818560208601613a43565b613cd681613a6d565b840191505092915050565b600060e083016000830151613cf96000860182613c79565b506020830151613d0c6020860182613c88565b506040830151613d1f6040860182613c79565b5060608301518482036060860152613d378282613ca8565b91505060808301518482036080860152613d518282613ca8565b91505060a083015184820360a0860152613d6b8282613ca8565b91505060c0830151613d8060c0860182613c79565b508091505092915050565b6000613d978383613ce1565b905092915050565b6000602082019050919050565b6000613db782613c4d565b613dc18185613c58565b935083602082028501613dd385613c69565b8060005b85811015613e0f5784840389528151613df08582613d8b565b9450613dfb83613d9f565b925060208a01995050600181019050613dd7565b50829750879550505050505092915050565b60006020820190508181036000830152613e3b8184613dac565b905092915050565b600060e083016000830151613e5b6000860182613c79565b506020830151613e6e6020860182613c88565b506040830151613e816040860182613c79565b5060608301518482036060860152613e998282613ca8565b91505060808301518482036080860152613eb38282613ca8565b91505060a083015184820360a0860152613ecd8282613ca8565b91505060c0830151613ee260c0860182613c79565b508091505092915050565b60006020820190508181036000830152613f078184613e43565b905092915050565b600060208284031215613f2557613f2461392e565b5b6000613f3384828501613ba5565b91505092915050565b600080fd5b600080fd5b7f4e487b7100000000000000000000000000000000000000000000000000000000600052604160045260246000fd5b613f7e82613a6d565b810181811067ffffffffffffffff82111715613f9d57613f9c613f46565b5b80604052505050565b6000613fb0613924565b9050613fbc8282613f75565b919050565b600067ffffffffffffffff821115613fdc57613fdb613f46565b5b613fe582613a6d565b9050602081019050919050565b82818337600083830152505050565b600061401461400f84613fc1565b613fa6565b9050828152602081018484840111156140305761402f613f41565b5b61403b848285613ff2565b509392505050565b600082601f83011261405857614057613f3c565b5b8135614068848260208601614001565b91505092915050565b6000806000806080858703121561408b5761408a61392e565b5b600085013567ffffffffffffffff8111156140a9576140a8613933565b5b6140b587828801614043565b945050602085013567ffffffffffffffff8111156140d6576140d5613933565b5b6140e287828801614043565b935050604085013567ffffffffffffffff81111561410357614102613933565b5b61410f87828801614043565b925050606061412087828801613af0565b91505092959194509250565b614135816139bd565b811461414057600080fd5b50565b6000813590506141528161412c565b92915050565b6000806040838503121561416f5761416e61392e565b5b600061417d85828601613ba5565b925050602061418e85828601614143565b9150509250929050565b600080604083850312156141af576141ae61392e565b5b60006141bd85828601613af0565b92505060206141ce85828601613af0565b9150509250929050565b600067ffffffffffffffff8211156141f3576141f2613f46565b5b6141fc82613a6d565b9050602081019050919050565b600061421c614217846141d8565b613fa6565b90508281526020810184848401111561423857614237613f41565b5b614243848285613ff2565b509392505050565b600082601f8301126142605761425f613f3c565b5b8135614270848260208601614209565b91505092915050565b600080600080608085870312156142935761429261392e565b5b60006142a187828801613ba5565b94505060206142b287828801613ba5565b93505060406142c387828801613af0565b925050606085013567ffffffffffffffff8111156142e4576142e3613933565b5b6142f08782880161424b565b91505092959194509250565b600080604083850312156143135761431261392e565b5b600061432185828601613ba5565b925050602061433285828601613ba5565b9150509250929050565b7f4e487b7100000000000000000000000000000000000000000000000000000000600052602260045260246000fd5b6000600282049050600182168061438357607f821691505b6020821081036143965761439561433c565b5b50919050565b7f4552433732313a20617070726f76616c20746f2063757272656e74206f776e6560008201527f7200000000000000000000000000000000000000000000000000000000000000602082015250565b60006143f8602183613a32565b91506144038261439c565b604082019050919050565b60006020820190508181036000830152614427816143eb565b9050919050565b7f4552433732313a20617070726f76652063616c6c6572206973206e6f7420746f60008201527f6b656e206f776e6572206f7220617070726f76656420666f7220616c6c000000602082015250565b600061448a603d83613a32565b91506144958261442e565b604082019050919050565b600060208201905081810360008301526144b98161447d565b9050919050565b7f4552433732313a2063616c6c6572206973206e6f7420746f6b656e206f776e6560008201527f72206f7220617070726f76656400000000000000000000000000000000000000602082015250565b600061451c602d83613a32565b9150614527826144c0565b604082019050919050565b6000602082019050818103600083015261454b8161450f565b9050919050565b7f455243373231456e756d657261626c653a206f776e657220696e646578206f7560008201527f74206f6620626f756e6473000000000000000000000000000000000000000000602082015250565b60006145ae602b83613a32565b91506145b982614552565b604082019050919050565b600060208201905081810360008301526145dd816145a1565b9050919050565b7f455243373231456e756d657261626c653a20676c6f62616c20696e646578206f60008201527f7574206f6620626f756e64730000000000000000000000000000000000000000602082015250565b6000614640602c83613a32565b915061464b826145e4565b604082019050919050565b6000602082019050818103600083015261466f81614633565b9050919050565b7f4e487b7100000000000000000000000000000000000000000000000000000000600052603260045260246000fd5b7f4e487b7100000000000000000000000000000000000000000000000000000000600052601160045260246000fd5b60006146df826139f3565b91506146ea836139f3565b9250828203905081811115614702576147016146a5565b5b92915050565b7f4552433732313a20696e76616c696420746f6b656e2049440000000000000000600082015250565b600061473e601883613a32565b915061474982614708565b602082019050919050565b6000602082019050818103600083015261476d81614731565b9050919050565b7f4552433732313a2061646472657373207a65726f206973206e6f74206120766160008201527f6c6964206f776e65720000000000000000000000000000000000000000000000602082015250565b60006147d0602983613a32565b91506147db82614774565b604082019050919050565b600060208201905081810360008301526147ff816147c3565b9050919050565b7f457468657220746f6f206c6f7720666f72206d696e74696e6721000000000000600082015250565b600061483c601a83613a32565b915061484782614806565b602082019050919050565b6000602082019050818103600083015261486b8161482f565b9050919050565b600081905092915050565b600061488882613a27565b6148928185614872565b93506148a2818560208601613a43565b80840191505092915050565b60006148ba828461487d565b915081905092915050565b7f54686973204e465420697320616c7265616479206d696e746564210000000000600082015250565b60006148fb601b83613a32565b9150614906826148c5565b602082019050919050565b6000602082019050818103600083015261492a816148ee565b9050919050565b7f53616c6573206e6f7420616c6c6f776564210000000000000000000000000000600082015250565b6000614967601283613a32565b915061497282614931565b602082019050919050565b600060208201905081810360008301526149968161495a565b9050919050565b60006149a8826139f3565b91506149b3836139f3565b92508282026149c1816139f3565b915082820484148315176149d8576149d76146a5565b5b5092915050565b7f4e487b7100000000000000000000000000000000000000000000000000000000600052601260045260246000fd5b6000614a19826139f3565b9150614a24836139f3565b925082614a3457614a336149df565b5b828204905092915050565b6000614a4a826139f3565b91507fffffffffffffffffffffffffffffffffffffffffffffffffffffffffffffffff8203614a7c57614a7b6146a5565b5b600182019050919050565b60008190508160005260206000209050919050565b60006020601f8301049050919050565b600082821b905092915050565b600060088302614ae97fffffffffffffffffffffffffffffffffffffffffffffffffffffffffffffffff82614aac565b614af38683614aac565b95508019841693508086168417925050509392505050565b6000819050919050565b6000614b30614b2b614b26846139f3565b614b0b565b6139f3565b9050919050565b6000819050919050565b614b4a83614b15565b614b5e614b5682614b37565b848454614ab9565b825550505050565b600090565b614b73614b66565b614b7e818484614b41565b505050565b5b81811015614ba257614b97600082614b6b565b600181019050614b84565b5050565b601f821115614be757614bb881614a87565b614bc184614a9c565b81016020851015614bd0578190505b614be4614bdc85614a9c565b830182614b83565b50505b505050565b600082821c905092915050565b6000614c0a60001984600802614bec565b1980831691505092915050565b6000614c238383614bf9565b9150826002028217905092915050565b614c3c82613a27565b67ffffffffffffffff811115614c5557614c54613f46565b5b614c5f825461436b565b614c6a828285614ba6565b600060209050601f831160018114614c9d5760008415614c8b578287015190505b614c958582614c17565b865550614cfd565b601f198416614cab86614a87565b60005b82811015614cd357848901518255600182019150602085019450602081019050614cae565b86831015614cf05784890151614cec601f891682614bf9565b8355505b6001600288020188555050505b505050505050565b6000608082019050614d1a60008301876139fd565b614d2760208301866139fd565b8181036040830152614d398185613a7e565b9050614d4860608301846139fd565b95945050505050565b7f457468657220746f6f206c6f7720666f72207075726368617365210000000000600082015250565b6000614d87601b83613a32565b9150614d9282614d51565b602082019050919050565b60006020820190508181036000830152614db681614d7a565b9050919050565b7f4f7065726174696f6e204e6f7420416c6c6f7765642100000000000000000000600082015250565b6000614df3601683613a32565b9150614dfe82614dbd565b602082019050919050565b60006020820190508181036000830152614e2281614de6565b9050919050565b60008154614e368161436b565b614e408186613a32565b94506001821660008114614e5b5760018114614e7157614ea4565b60ff198316865281151560200286019350614ea4565b614e7a85614a87565b60005b83811015614e9c57815481890152600182019150602081019050614e7d565b808801955050505b50505092915050565b6000608082019050614ec260008301876139fd565b614ecf60208301866139fd565b8181036040830152614ee18185614e29565b9050614ef060608301846139fd565b95945050505050565b7f457468657220746f6f206c6f7721000000000000000000000000000000000000600082015250565b6000614f2f600e83613a32565b9150614f3a82614ef9565b602082019050919050565b60006020820190508181036000830152614f5e81614f22565b9050919050565b6000614f71828561487d565b9150614f7d828461487d565b91508190509392505050565b7f4f776e61626c653a206e6577206f776e657220697320746865207a65726f206160008201527f6464726573730000000000000000000000000000000000000000000000000000602082015250565b6000614fe5602683613a32565b9150614ff082614f89565b604082019050919050565b6000602082019050818103600083015261501481614fd8565b9050919050565b7f4552433732313a207472616e736665722066726f6d20696e636f72726563742060008201527f6f776e6572000000000000000000000000000000000000000000000000000000602082015250565b6000615077602583613a32565b91506150828261501b565b604082019050919050565b600060208201905081810360008301526150a68161506a565b9050919050565b7f4552433732313a207472616e7366657220746f20746865207a65726f2061646460008201527f7265737300000000000000000000000000000000000000000000000000000000602082015250565b6000615109602483613a32565b9150615114826150ad565b604082019050919050565b60006020820190508181036000830152615138816150fc565b9050919050565b7f4f776e61626c653a2063616c6c6572206973206e6f7420746865206f776e6572600082015250565b6000615175602083613a32565b91506151808261513f565b602082019050919050565b600060208201905081810360008301526151a481615168565b9050919050565b600081905092915050565b50565b60006151c66000836151ab565b91506151d1826151b6565b600082019050919050565b60006151e7826151b9565b9150819050919050565b7f4552433732313a20617070726f766520746f2063616c6c657200000000000000600082015250565b6000615227601983613a32565b9150615232826151f1565b602082019050919050565b600060208201905081810360008301526152568161521a565b9050919050565b7f4552433732313a207472616e7366657220746f206e6f6e20455243373231526560008201527f63656976657220696d706c656d656e7465720000000000000000000000000000602082015250565b60006152b9603283613a32565b91506152c48261525d565b604082019050919050565b600060208201905081810360008301526152e8816152ac565b9050919050565b7f455243373231456e756d657261626c653a20636f6e736563757469766520747260008201527f616e7366657273206e6f7420737570706f727465640000000000000000000000602082015250565b600061534b603583613a32565b9150615356826152ef565b604082019050919050565b6000602082019050818103600083015261537a8161533e565b9050919050565b600081519050919050565b600082825260208201905092915050565b60006153a882615381565b6153b2818561538c565b93506153c2818560208601613a43565b6153cb81613a6d565b840191505092915050565b60006080820190506153eb6000830187613b64565b6153f86020830186613b64565b61540560408301856139fd565b8181036060830152615417818461539d565b905095945050505050565b60008151905061543181613964565b92915050565b60006020828403121561544d5761544c61392e565b5b600061545b84828501615422565b91505092915050565b600061546f826139f3565b915061547a836139f3565b9250828201905080821115615492576154916146a5565b5b92915050565b7f4e487b7100000000000000000000000000000000000000000000000000000000600052603160045260246000fd5b7f4552433732313a206d696e7420746f20746865207a65726f2061646472657373600082015250565b60006154fd602083613a32565b9150615508826154c7565b602082019050919050565b6000602082019050818103600083015261552c816154f0565b9050919050565b7f4552433732313a20746f6b656e20616c7265616479206d696e74656400000000600082015250565b6000615569601c83613a32565b915061557482615533565b602082019050919050565b600060208201905081810360008301526155988161555c565b905091905056fea2646970667358221220e27f0f5363f4763e00b33e1ac69a55030ec4a8292f0deb1db54de1e8851b430064736f6c63430008110033",
  "immutableReferences": {},
  "source": "// SPDX-License-Identifier: MIT\npragma solidity >=0.7.0 <0.9.0;\n\nimport \"@openzeppelin/contracts/token/ERC721/ERC721.sol\";\nimport \"@openzeppelin/contracts/token/ERC721/extensions/ERC721Enumerable.sol\";\nimport \"@openzeppelin/contracts/access/Ownable.sol\";\n\n\ncontract NFTContract is ERC721Enumerable, Ownable {\n    using Strings for uint256;\n    mapping(string => uint8) existingURIs;\n    mapping(uint256 => address) public holderOf;\n\n    address public artist;\n    uint256 public royaltyFee;\n    uint256 public supply = 0;\n    uint256 public totalTx = 0;\n    uint256 public cost = 0.01 ether;\n\n    event Sale(\n        uint256 id,\n        address indexed owner,\n        uint256 cost,\n        string metadataURI,\n        uint256 timestamp\n    );\n\n    struct TransactionStruct {\n        uint256 id;\n        address owner;\n        uint256 cost;\n        string title;\n        string description;\n        string metadataURI;\n        uint256 timestamp;\n    }\n\n    TransactionStruct[] transactions;\n    TransactionStruct[] minted;\n\n    constructor(\n        string memory _name,\n        string memory _symbol,\n        uint256 _royaltyFee,\n        address _artist\n    ) ERC721(_name, _symbol) {\n        royaltyFee = _royaltyFee;\n        artist = _artist;\n    }\n\n    function payToMint(\n        string memory title,\n        string memory description,\n        string memory metadataURI,\n        uint256 salesPrice\n    ) external payable {\n        require(msg.value >= cost, \"Ether too low for minting!\");\n        require(existingURIs[metadataURI] == 0, \"This NFT is already minted!\");\n        require(msg.sender != owner(), \"Sales not allowed!\");\n        uint256 royalty = (msg.value * royaltyFee) / 100;\n        payTo(artist, royalty);\n        payTo(owner(), (msg.value - royalty));\n\n        supply++;\n\n        minted.push(\n            TransactionStruct(\n                supply,\n                msg.sender,\n                salesPrice,\n                title,\n                description,\n                metadataURI,\n                block.timestamp\n            )\n        );\n\n        emit Sale(\n            supply,\n            msg.sender,\n            msg.value,\n            metadataURI,\n            block.timestamp\n        );\n\n        _safeMint(msg.sender, supply);\n        existingURIs[metadataURI] = 1;\n        holderOf[supply] = msg.sender;\n    }\n\n    function payToBuy(uint256 id) external payable {\n        require(msg.value >= minted[id - 1].cost, \"Ether too low for purchase!\");\n        require(msg.sender != minted[id - 1].owner, \"Operation Not Allowed!\");\n\n        uint256 royalty = (msg.value * royaltyFee) / 100;\n        payTo(artist, royalty);\n        payTo(minted[id - 1].owner, (msg.value - royalty));\n\n        totalTx++;\n\n        transactions.push(\n            TransactionStruct(\n                totalTx,\n                msg.sender,\n                msg.value,\n                minted[id - 1].title,\n                minted[id - 1].description,\n                minted[id - 1].metadataURI,\n                block.timestamp\n            )\n        );\n\n        emit Sale(\n            totalTx,\n            msg.sender,\n            msg.value,\n            minted[id - 1].metadataURI,\n            block.timestamp\n        );\n\n        minted[id - 1].owner = msg.sender;\n    }\n\n    function changePrice(uint256 id, uint256 newPrice) external returns (bool) {\n        require(newPrice > 0 ether, \"Ether too low!\");\n        require(msg.sender == minted[id - 1].owner, \"Operation Not Allowed!\");\n\n        minted[id - 1].cost = newPrice;\n        return true;\n    }\n\n    function payTo(address to, uint256 amount) internal {\n        (bool success, ) = payable(to).call{value: amount}(\"\");\n        require(success);\n    }\n\n    function getAllNFTs() external view returns (TransactionStruct[] memory) {\n        return minted;\n    }\n\n    function getNFT(uint256 id) external view returns (TransactionStruct memory) {\n        return minted[id - 1];\n    }\n\n    function getAllTransactions() external view returns (TransactionStruct[] memory) {\n        return transactions;\n    }\n\n}\n",
  "sourcePath": "/Volumes/Data/projects/nft-marketplace/contracts/NFTContract.sol",
  "compiler": {
    "name": "solc",
    "version": "0.8.17+commit.8df45f5f.Emscripten.clang"
  },
  "schemaVersion": "3.4.10",
  "updatedAt": "2022-11-12T05:10:53.317Z",
  "networkType": "ethereum",
  "devdoc": {
    "kind": "dev",
    "methods": {
      "approve(address,uint256)": {
        "details": "See {IERC721-approve}."
      },
      "balanceOf(address)": {
        "details": "See {IERC721-balanceOf}."
      },
      "getApproved(uint256)": {
        "details": "See {IERC721-getApproved}."
      },
      "isApprovedForAll(address,address)": {
        "details": "See {IERC721-isApprovedForAll}."
      },
      "name()": {
        "details": "See {IERC721Metadata-name}."
      },
      "owner()": {
        "details": "Returns the address of the current owner."
      },
      "ownerOf(uint256)": {
        "details": "See {IERC721-ownerOf}."
      },
      "renounceOwnership()": {
        "details": "Leaves the contract without owner. It will not be possible to call `onlyOwner` functions anymore. Can only be called by the current owner. NOTE: Renouncing ownership will leave the contract without an owner, thereby removing any functionality that is only available to the owner."
      },
      "safeTransferFrom(address,address,uint256)": {
        "details": "See {IERC721-safeTransferFrom}."
      },
      "safeTransferFrom(address,address,uint256,bytes)": {
        "details": "See {IERC721-safeTransferFrom}."
      },
      "setApprovalForAll(address,bool)": {
        "details": "See {IERC721-setApprovalForAll}."
      },
      "supportsInterface(bytes4)": {
        "details": "See {IERC165-supportsInterface}."
      },
      "symbol()": {
        "details": "See {IERC721Metadata-symbol}."
      },
      "tokenByIndex(uint256)": {
        "details": "See {IERC721Enumerable-tokenByIndex}."
      },
      "tokenOfOwnerByIndex(address,uint256)": {
        "details": "See {IERC721Enumerable-tokenOfOwnerByIndex}."
      },
      "tokenURI(uint256)": {
        "details": "See {IERC721Metadata-tokenURI}."
      },
      "totalSupply()": {
        "details": "See {IERC721Enumerable-totalSupply}."
      },
      "transferFrom(address,address,uint256)": {
        "details": "See {IERC721-transferFrom}."
      },
      "transferOwnership(address)": {
        "details": "Transfers ownership of the contract to a new account (`newOwner`). Can only be called by the current owner."
      }
    },
    "version": 1
  },
  "userdoc": {
    "kind": "user",
    "methods": {},
    "version": 1
  }
}